:0600000002001602026B73
:03000B000202F4FA
:0F00130002021ED2AFD2AAD28AD2A8D288D2A914
:10002200C2D5758D4C758B00D28E31F57480510816
:0E003200C2B0D283C295D282D285C200C2B4BF
:0F00400090042831D72090FD31EE90032931D75D
:0F004F0031BE31EE90041631D774C05108D297EC
:10005E00C2977F327117DFFC7F19D29700C29700CB
:10006E00DFF82084FD7F18E4F530F531F532D297B4
:10007E000000A284E53233F532E53133F531E53057
:10008E0033F530C2970000DFE5D29700C297E53214
:10009E0075F06484F8E5F075F00A84F9FAE8243016
:1000AE005113E924305113EA24305113711E711E7D
:1000BE0030B602808E31EE7480510890033A31D7FB
:1000CE007A0551E03000FD31EE7480510890034AFC
:0F00DE0031D7D293C29431B130960280F9C283E8
:0F00ED007A0F51E0C286C28731EE90035A31D7A5
:0E00FC0020B50B711730B5028004B286B287B2
:0F010A003000EFD283C283D286C2877A0F51E0D2
:1001190031EE90036A31D73000FDD28331EE74801D
:10012900510890034A31D7D293C29431B130800437
:0E01390080F980FE7A0A51E0C283C286D28726
:1001470090037831EE748031D73000FDD2837A0A7C
:1001570051E0D2B490038D31EE748031D73000FD79
:0F016700C2B431EE7480510890034A31D7D2935D
:0F017600C29431B130810280F97A0F51E031EE3D
:0F0185007480510890039831D720811120000E0B
:10019400C2B07E4BDEFED2B07E19DEFE80ECC2B071
:0F01A40031EE748051089003AB31D780FED295B5
:0F01B3007819D8FEC295784BD8FE227D037C14B4
:1001C200758911758C4C758A00D28C308DFDC28D6B
:1001D200DCEEDDEA22C0E0E49360055113A380F770
:1001E200D0E0227D027EFFDEFEDDFA22740151089C
:0F01F20031E52231E574385108740C510874015D
:0F02010051087406510822F5A0C291D29231E53E
:10021000C29222F5A0D291D29231E5C29222A2835B
:100220009201A2B49202A2959203A2B09204C28556
:0E023000D283C2B4C295C2B031EE74805108C0
:0F023E0090043831D720B6FD711730B60280F624
:10024D00A2019283A20292B4A2039295A20492B04B
:10025D00D28531EE7480510890044431D732C2B04A
:0F026D00C295C293C294C285748051089003BC9D
:10027C0031D720B6147480510890040031D731BEA8
:0F028C00C2B77F3CDFFED2B73230B10B308219E0
:0F029B0020B12720822480DB748051089003CE8D
:0E02AA0031D7D295D293C29480CA7480510885
:0F02B8009003EF31D7D295C293D29480B9C295FB
:0F02C700C293C294748051089003BC31D774C0A5
:1002D60051089003DF31D7809F3278007900D2A988
:1002E600C200758911758C4C758A00D28C22C28C1D
:1002F60008E8B41411780009E98AF0B5F008780026
:100306007900D200C2A9C28D758C4C758A00D28C38
:10031600327EFA0000DEFC227FC87EFA0000DEFC98
:10032600DFF82256656869636C65206465746563E9
:100336007465640057617368696E672073746172CF
:1003460074656400436F6E7665796F72206D6F76A3
:10035600696E670052696E73696E672076656869B3
:10036600636C65004170706C79696E6720736F61AC
:1003760070004272757368696E6720616E6420480A
:100386005020576173680048502057617368696E42
:100396006700447279696E672074686520766568BF
:1003A60069636C650050726F6365737320436F6D8C
:1003B600706C65746500456D657267656E6379205E
:1003C60053746F70706564004D6F766520466F726A
:1003D6007761726420202020002020202020202009
:1003E6002020202020202020004D6F7665204261AD
:1003F600636B776172642020200053595354454D36
:100406002052455345542020202020202020200023
:10041600576569676874203A202020202020202014
:100426002000232323204143575320232323202026
:1004360020004C50204445544543544544005359EC
:0E0446005354454D20524553554D494E4700E5
:00000001FF
